{
 "cells": [
  {
   "cell_type": "markdown",
   "metadata": {},
   "source": [
    "# Signature Hashes and Validation [not working]\n",
    "\n",
    "Perhaps the trickiest part of validating a transaction is the process of checking its signatures. A transaction typically has at least one signature per input. If there are multisig outputs being spent, there may be more. As we learned earlier, the ECDSA signature algorithm requires that for each input, we need the public key (P), the signature hash (z), and the Signature (r,s). Once these are determined, the process of verifying the signature is pretty simple.\n",
    "\n",
    "```python\n",
    "point = Point.parse(sec)\n",
    "signature = Signature.parse(der)\n",
    "point.verify(z, signature)  # True\n",
    "```\n",
    "\n",
    "The sec and der formats make getting the P, r and s pretty simple. The hard part is getting the actual signature hash (z). You would think that this would be easy since you can just hash the transaction. But you can't do that since the signature itself is part of the scriptSig and a signature can't sign itself.\n",
    "\n",
    "Instead, what you need to do is to modify the transaction before actually signing it. That is, you have to compute the z in a very particular way. The procedure is as follows.\n"
   ]
  },
  {
   "cell_type": "markdown",
   "metadata": {},
   "source": [
    "### Test Driven Exercise"
   ]
  },
  {
   "cell_type": "code",
   "execution_count": 9,
   "metadata": {},
   "outputs": [],
   "source": [
    "from helper import SIGHASH_ALL\n",
    "from tx import Tx\n",
    "\n",
    "class Tx(Tx):\n",
    "\n",
    "    def sig_hash(self, input_index, hash_type):\n",
    "        '''Returns the integer representation of the hash that needs to get\n",
    "        signed for index input_index'''\n",
    "        # create a new set of tx_ins (alt_tx_ins)\n",
    "        # iterate over self.tx_ins\n",
    "            # create a new TxIn that has a blank script_sig (b'') and add to alt_tx_ins\n",
    "        # grab the input at the input_index\n",
    "        # grab the script_pubkey of the input\n",
    "        # the script_sig of the signing_input should be script_pubkey\n",
    "        # create an alternate transaction with the modified tx_ins\n",
    "        # add the hash_type int 4 bytes, little endian\n",
    "        # get the double_sha256 of the tx serialization\n",
    "        # convert this to a big-endian integer using int.from_bytes(x, 'big')\n",
    "        pass"
   ]
  },
  {
   "cell_type": "code",
   "execution_count": 6,
   "metadata": {},
   "outputs": [
    {
     "name": "stdout",
     "output_type": "stream",
     "text": [
      "True\n"
     ]
    }
   ],
   "source": [
    "# Validation example\n",
    "\n",
    "from io import BytesIO\n",
    "\n",
    "from ecc import S256Point, Signature\n",
    "from helper import double_sha256\n",
    "from tx import Tx\n",
    "\n",
    "modified_tx = bytes.fromhex('0100000001813f79011acb80925dfe69b3def355fe914bd1d96a3f5f71bf8303c6a989c7d1000000001976a914a802fc56c704ce87c42d7c92eb75e7896bdc41ae88acfeffffff02a135ef01000000001976a914bc3b654dca7e56b04dca18f2566cdaf02e8d9ada88ac99c39800000000001976a9141c4bc762dd5423e332166702cb75f40df79fea1288ac1943060001000000')\n",
    "h = double_sha256(modified_tx)\n",
    "z = int.from_bytes(h, 'big')\n",
    "\n",
    "stream = BytesIO(bytes.fromhex('0100000001813f79011acb80925dfe69b3def355fe914bd1d96a3f5f71bf8303c6a989c7d1000000006b483045022100ed81ff192e75a3fd2304004dcadb746fa5e24c5031ccfcf21320b0277457c98f02207a986d955c6e0cb35d446a89d3f56100f4d7f67801c31967743a9c8e10615bed01210349fc4e631e3624a545de3f89f5d8684c7b8138bd94bdd531d2e213bf016b278afeffffff02a135ef01000000001976a914bc3b654dca7e56b04dca18f2566cdaf02e8d9ada88ac99c39800000000001976a9141c4bc762dd5423e332166702cb75f40df79fea1288ac19430600'))\n",
    "transaction = Tx.parse(stream)\n",
    "tx_in = transaction.tx_ins[0]\n",
    "sig = Signature.parse(tx_in.der_signature())\n",
    "point = S256Point.parse(tx_in.sec_pubkey())\n",
    "print(point.verify(z, sig))"
   ]
  },
  {
   "cell_type": "markdown",
   "metadata": {},
   "source": [
    "### Exercise\n",
    "\n",
    "#### Validate this signature\n",
    "\n",
    "```\n",
    "sec = 0349fc4e631e3624a545de3f89f5d8684c7b8138bd94bdd531d2e213bf016b278a\n",
    "der = 3045022100ed81ff192e75a3fd2304004dcadb746fa5e24c5031ccfcf21320b0277457c98f02207a986d955c6e0cb35d446a89d3f56100f4d7f67801c31967743a9c8e10615bed\n",
    "z = 27e0c5994dec7824e56dec6b2fcb342eb7cdb0d0957c2fce9882f715e85d81a6\n",
    "```\n",
    "\n",
    "Remember:\n",
    "\n",
    "* `sec` is the serialization of the Public Key\n",
    "* `der` is the serialization of the Signature\n",
    "* `z` is the hash that you're verifying the signature against"
   ]
  },
  {
   "cell_type": "code",
   "execution_count": 7,
   "metadata": {},
   "outputs": [],
   "source": [
    "from ecc import S256Point, Signature\n",
    "\n",
    "sec = bytes.fromhex('0349fc4e631e3624a545de3f89f5d8684c7b8138bd94bdd531d2e213bf016b278a')\n",
    "der = bytes.fromhex('3045022100ed81ff192e75a3fd2304004dcadb746fa5e24c5031ccfcf21320b0277457c98f02207a986d955c6e0cb35d446a89d3f56100f4d7f67801c31967743a9c8e10615bed')\n",
    "z = 0x27e0c5994dec7824e56dec6b2fcb342eb7cdb0d0957c2fce9882f715e85d81a6\n",
    "\n",
    "# use S256Point.parse on the sec to get the public point\n",
    "# use Signature.parse on the der to get the signature\n",
    "# use S256Point.verify method"
   ]
  },
  {
   "cell_type": "markdown",
   "metadata": {},
   "source": [
    "### Exercise\n",
    "\n",
    "#### Validate the signature for the first input in this transaction.\n",
    "```\n",
    "01000000012f5ab4d2666744a44864a63162060c2ae36ab0a2375b1c2b6b43077ed5dcbed6000000006a473044022034177d53fcb8e8cba62432c5f6cc3d11c16df1db0bce20b874cfc61128b529e1022040c2681a2845f5eb0c46adb89585604f7bf8397b82db3517afb63f8e3d609c990121035e8b10b675477614809f3dde7fd0e33fb898af6d86f51a65a54c838fddd417a5feffffff02c5872e00000000001976a91441b835c78fb1406305727d8925ff315d90f9bbc588acae2e1700000000001976a914c300e84d277c6c7bcf17190ebc4e7744609f8b0c88ac31470600\n",
    "```"
   ]
  },
  {
   "cell_type": "code",
   "execution_count": 8,
   "metadata": {},
   "outputs": [],
   "source": [
    "from io import BytesIO\n",
    "from ecc import S256Point, Signature\n",
    "from tx import Tx\n",
    "\n",
    "hex_tx = '01000000012f5ab4d2666744a44864a63162060c2ae36ab0a2375b1c2b6b43077ed5dcbed6000000006a473044022034177d53fcb8e8cba62432c5f6cc3d11c16df1db0bce20b874cfc61128b529e1022040c2681a2845f5eb0c46adb89585604f7bf8397b82db3517afb63f8e3d609c990121035e8b10b675477614809f3dde7fd0e33fb898af6d86f51a65a54c838fddd417a5feffffff02c5872e00000000001976a91441b835c78fb1406305727d8925ff315d90f9bbc588acae2e1700000000001976a914c300e84d277c6c7bcf17190ebc4e7744609f8b0c88ac31470600'\n",
    "stream = BytesIO(bytes.fromhex(hex_tx))\n",
    "index = 0\n",
    "\n",
    "# parse the transaction using Tx.parse\n",
    "# grab the input at index\n",
    "# use the input's der_signature, sec_pubkey and hash_type methods to get data\n",
    "# parse the signature using Signature.parse\n",
    "# parse the sec pubkey using S256Point.parse\n",
    "# use the sig_hash method on index and hash_type to get z\n",
    "# use the pubkey to verify the signature (z, sig)"
   ]
  }
 ],
 "metadata": {
  "kernelspec": {
   "display_name": "Python 3",
   "language": "python",
   "name": "python3"
  },
  "language_info": {
   "codemirror_mode": {
    "name": "ipython",
    "version": 3
   },
   "file_extension": ".py",
   "mimetype": "text/x-python",
   "name": "python",
   "nbconvert_exporter": "python",
   "pygments_lexer": "ipython3",
   "version": "3.6.5"
  }
 },
 "nbformat": 4,
 "nbformat_minor": 2
}
